{
  "contractName": "Game",
  "abi": [
    {
      "inputs": [],
      "payable": false,
      "stateMutability": "nonpayable",
      "type": "constructor"
    },
    {
      "constant": false,
      "inputs": [
        {
          "internalType": "string",
          "name": "name",
          "type": "string"
        },
        {
          "internalType": "string",
          "name": "class",
          "type": "string"
        }
      ],
      "name": "createCharacter",
      "outputs": [],
      "payable": false,
      "stateMutability": "nonpayable",
      "type": "function"
    },
    {
      "constant": true,
      "inputs": [],
      "name": "getCharacter",
      "outputs": [
        {
          "internalType": "contract Character",
          "name": "",
          "type": "address"
        }
      ],
      "payable": false,
      "stateMutability": "view",
      "type": "function"
    },
    {
      "constant": false,
      "inputs": [
        {
          "internalType": "string",
          "name": "key",
          "type": "string"
        },
        {
          "internalType": "contract Class",
          "name": "class",
          "type": "address"
        }
      ],
      "name": "addClass",
      "outputs": [],
      "payable": false,
      "stateMutability": "nonpayable",
      "type": "function"
    },
    {
      "constant": false,
      "inputs": [
        {
          "internalType": "string",
          "name": "key",
          "type": "string"
        }
      ],
      "name": "removeClass",
      "outputs": [],
      "payable": false,
      "stateMutability": "nonpayable",
      "type": "function"
    }
  ],
  "bytecode": "0x608060405234801561001057600080fd5b50336000806101000a81548173ffffffffffffffffffffffffffffffffffffffff021916908373ffffffffffffffffffffffffffffffffffffffff160217905550610cc8806100606000396000f3fe608060405234801561001057600080fd5b506004361061004c5760003560e01c80631b666d80146100515780631e8237df1461012c578063375c5881146101765780636d81b8dd146102c8575b600080fd5b61012a6004803603604081101561006757600080fd5b810190808035906020019064010000000081111561008457600080fd5b82018360208201111561009657600080fd5b803590602001918460018302840111640100000000831117156100b857600080fd5b91908080601f016020809104026020016040519081016040528093929190818152602001838380828437600081840152601f19601f820116905080830192505050505050509192919290803573ffffffffffffffffffffffffffffffffffffffff169060200190929190505050610383565b005b6101346104d4565b604051808273ffffffffffffffffffffffffffffffffffffffff1673ffffffffffffffffffffffffffffffffffffffff16815260200191505060405180910390f35b6102c66004803603604081101561018c57600080fd5b81019080803590602001906401000000008111156101a957600080fd5b8201836020820111156101bb57600080fd5b803590602001918460018302840111640100000000831117156101dd57600080fd5b91908080601f016020809104026020016040519081016040528093929190818152602001838380828437600081840152601f19601f8201169050808301925050505050505091929192908035906020019064010000000081111561024057600080fd5b82018360208201111561025257600080fd5b8035906020019184600183028401116401000000008311171561027457600080fd5b91908080601f016020809104026020016040519081016040528093929190818152602001838380828437600081840152601f19601f82011690508083019250505050505050919291929050505061053b565b005b610381600480360360208110156102de57600080fd5b81019080803590602001906401000000008111156102fb57600080fd5b82018360208201111561030d57600080fd5b8035906020019184600183028401116401000000008311171561032f57600080fd5b91908080601f016020809104026020016040519081016040528093929190818152602001838380828437600081840152601f19601f820116905080830192505050505050509192919290505050610712565b005b3373ffffffffffffffffffffffffffffffffffffffff166000809054906101000a900473ffffffffffffffffffffffffffffffffffffffff1673ffffffffffffffffffffffffffffffffffffffff1614610428576040517f08c379a0000000000000000000000000000000000000000000000000000000008152600401808060200182810382526029815260200180610c6b6029913960400191505060405180910390fd5b806002836040518082805190602001908083835b6020831061045f578051825260208201915060208101905060208303925061043c565b6001836020036101000a038019825116818451168082178552505050505050905001915050908152602001604051809103902060006101000a81548173ffffffffffffffffffffffffffffffffffffffff021916908373ffffffffffffffffffffffffffffffffffffffff1602179055505050565b6000600160003373ffffffffffffffffffffffffffffffffffffffff1673ffffffffffffffffffffffffffffffffffffffff16815260200190815260200160002060009054906101000a900473ffffffffffffffffffffffffffffffffffffffff16905090565b816002826040518082805190602001908083835b60208310610572578051825260208201915060208101905060208303925061054f565b6001836020036101000a038019825116818451168082178552505050505050905001915050908152602001604051809103902060009054906101000a900473ffffffffffffffffffffffffffffffffffffffff166040516105d290610846565b80806020018373ffffffffffffffffffffffffffffffffffffffff1673ffffffffffffffffffffffffffffffffffffffff168152602001828103825284818151815260200191508051906020019080838360005b83811015610641578082015181840152602081019050610626565b50505050905090810190601f16801561066e5780820380516001836020036101000a031916815260200191505b509350505050604051809103906000f080158015610690573d6000803e3d6000fd5b50600160003373ffffffffffffffffffffffffffffffffffffffff1673ffffffffffffffffffffffffffffffffffffffff16815260200190815260200160002060006101000a81548173ffffffffffffffffffffffffffffffffffffffff021916908373ffffffffffffffffffffffffffffffffffffffff1602179055505050565b3373ffffffffffffffffffffffffffffffffffffffff166000809054906101000a900473ffffffffffffffffffffffffffffffffffffffff1673ffffffffffffffffffffffffffffffffffffffff16146107b7576040517f08c379a0000000000000000000000000000000000000000000000000000000008152600401808060200182810382526029815260200180610c6b6029913960400191505060405180910390fd5b6002816040518082805190602001908083835b602083106107ed57805182526020820191506020810190506020830392506107ca565b6001836020036101000a038019825116818451168082178552505050505050905001915050908152602001604051809103902060006101000a81549073ffffffffffffffffffffffffffffffffffffffff021916905550565b610417806108548339019056fe608060405234801561001057600080fd5b506040516104173803806104178339818101604052604081101561003357600080fd5b810190808051604051939291908464010000000082111561005357600080fd5b8382019150602082018581111561006957600080fd5b825186600182028301116401000000008211171561008657600080fd5b8083526020830192505050908051906020019080838360005b838110156100ba57808201518184015260208101905061009f565b50505050905090810190601f1680156100e75780820380516001836020036101000a031916815260200191505b5060405260200180519060200190929190505050816000908051906020019061011192919061015a565b5080600160006101000a81548173ffffffffffffffffffffffffffffffffffffffff021916908373ffffffffffffffffffffffffffffffffffffffff16021790555050506101ff565b828054600181600116156101000203166002900490600052602060002090601f016020900481019282601f1061019b57805160ff19168380011785556101c9565b828001600101855582156101c9579182015b828111156101c85782518255916020019190600101906101ad565b5b5090506101d691906101da565b5090565b6101fc91905b808211156101f85760008160009055506001016101e0565b5090565b90565b6102098061020e6000396000f3fe608060405234801561001057600080fd5b50600436106100365760003560e01c806317d7de7c1461003b57806357e61ea4146100be575b600080fd5b610043610108565b6040518080602001828103825283818151815260200191508051906020019080838360005b83811015610083578082015181840152602081019050610068565b50505050905090810190601f1680156100b05780820380516001836020036101000a031916815260200191505b509250505060405180910390f35b6100c66101aa565b604051808273ffffffffffffffffffffffffffffffffffffffff1673ffffffffffffffffffffffffffffffffffffffff16815260200191505060405180910390f35b606060008054600181600116156101000203166002900480601f0160208091040260200160405190810160405280929190818152602001828054600181600116156101000203166002900480156101a05780601f10610175576101008083540402835291602001916101a0565b820191906000526020600020905b81548152906001019060200180831161018357829003601f168201915b5050505050905090565b6000600160009054906101000a900473ffffffffffffffffffffffffffffffffffffffff1690509056fea265627a7a7231582076936c2ac3b8a2dc56984c8138e8075d08685b46ae1f80144a6139b9ff63c0a864736f6c634300051000324f6f70732c2053656e646572206973206e6f742074686520636f6e7472616374206f776e6572203a28a265627a7a7231582062f8cf086f703b8e1cbda95902e4fabb2a428fe0b5ce0e3595ba531f30e283c764736f6c63430005100032",
  "source": "pragma solidity ^0.5.0;\n\nimport \"./Character.sol\";\nimport \"./Class.sol\";\n\ncontract Game {\n\n    address private _owner;\n\n    mapping(address => Character) private _characters;\n    mapping(string => Class) private _classes;\n\n    modifier isOwner {\n        require(_owner == msg.sender, \"Oops, Sender is not the contract owner :(\");\n        _;\n    }\n\n    constructor() public {\n        _owner = msg.sender;\n    }\n\n    function createCharacter(string memory name, string memory class) public {\n        _characters[msg.sender] = new Character(name, _classes[class]);\n    }\n\n    function getCharacter() public view returns (Character) {\n        return _characters[msg.sender];\n    }\n\n    function addClass(string memory key, Class class) public isOwner {\n        _classes[key] = class;\n    }\n\n    function removeClass(string memory key) public isOwner {\n        delete _classes[key];\n    }\n\n}",
  "sourcePath": "/home/no/Documents/Projects/Ethventure/solidity/contracts/Game.sol",
  "compiler": {
    "name": "solc",
    "version": "0.5.16+commit.9c3226ce.Emscripten.clang"
  },
  "schemaVersion": "3.2.0",
  "updatedAt": "2020-07-04T18:06:00.442Z",
  "networkType": "ethereum",
  "devdoc": {
    "methods": {}
  },
  "userdoc": {
    "methods": {}
  }
}