{
  "contractName": "Rogue",
  "abi": [
    {
      "constant": true,
      "inputs": [],
      "name": "getName",
      "outputs": [
        {
          "internalType": "string",
          "name": "",
          "type": "string"
        }
      ],
      "payable": false,
      "stateMutability": "view",
      "type": "function"
    }
  ],
  "bytecode": "0x608060405234801561001057600080fd5b5061011d806100206000396000f3fe6080604052348015600f57600080fd5b506004361060285760003560e01c806317d7de7c14602d575b600080fd5b603360ab565b6040518080602001828103825283818151815260200191508051906020019080838360005b8381101560715780820151818401526020810190506058565b50505050905090810190601f168015609d5780820380516001836020036101000a031916815260200191505b509250505060405180910390f35b60606040518060400160405280600581526020017f526f67756500000000000000000000000000000000000000000000000000000081525090509056fea265627a7a72315820873a2b2946009612102f5dadf6ad1cb46e257056e90e15b39793f13af7d1ee5164736f6c63430005100032",
  "source": "pragma solidity ^0.5.0;\n\nimport \"../Class.sol\";\n\ncontract Rogue is Class {\n    function getName() public view returns(string memory) {\n        return \"Rogue\";\n    }\n}",
  "sourcePath": "/home/no/Documents/Projects/Ethventure/solidity/contracts/Classes/Rogue.sol",
  "compiler": {
    "name": "solc",
    "version": "0.5.16+commit.9c3226ce.Emscripten.clang"
  },
  "schemaVersion": "3.2.0",
  "updatedAt": "2020-07-04T18:06:00.444Z",
  "networkType": "ethereum",
  "devdoc": {
    "methods": {}
  },
  "userdoc": {
    "methods": {}
  }
}